:020000040800F2
:1000000000000220716D00087D1100087F110008BA
:10001000811100088311000885110008000000000C
:100020000000000000000000000000001145000872
:100030008711000800000000B1450008A340000837
:10004000C16D0008C16D0008C16D0008C16D0008D8
:10005000C16D0008C16D0008C16D0008C16D0008C8
:10006000C16D0008C16D0008C16D0008891100084C
:10007000C16D000899110008C16D0008C16D00082C
:10008000A9110008C16D0008B9110008C9110008C4
:10009000D9110008E9110008F9110008C16D000824
:1000A000C16D0008C16D000809120008C16D00088B
:1000B000191200082912000839120008C16D000841
:1000C000C16D0008C16D0008C16D0008C16D000858
:1000D000C16D000849120008591200086912000891
:1000E000C16D0008C16D0008C16D0008C16D000838
:1000F00079120008C16D0008C16D0008C16D0008CB
:10010000C16D0008C16D000889120008C16D0008AA
:1001100099120008A9120008C16D0008C16D0008FD
:10012000C16D0008C16D0008B9120008C16D00085A
:10013000C16D0008C16D0008C16D0008C91200083A
:10014000D9120008E9120008F9120008C16D000870
:10015000C16D0008C16D0008C16D0008C16D0008C7
:10016000C16D0008C16D0008C16D0008C16D0008B7
:10017000C16D0008C16D0008C16D000800000000DD
:08018000C16D0008C16D00080B
:1001900010B5054C237833B9044B13B10448AFF3C1
:1001A00000800123237010BDE40100200000000046
:1001B0007099000808B5034B1BB103490348AFF31E
:1001C000008008BD00000000E801002070990008D0
:1001D000034613F8012B002AFBD1181A0138704787
:1001E00001F0FF01102A2BDB10F0070F08D010F8E8
:1001F000013B013A8B422DD010F0070F42B3F6D1EC
:10020000F0B441EA012141EA014122F007047FF004
:1002100000070023F0E80256083C85EA010586EA5B
:10022000010685FA47F5A3FA87F586FA47F6A5FA97
:1002300087F68EB9EED1F0BC01F0FF0102F00702A3
:1002400032B110F8013B013A83EA010313B1F8D14E
:100250000020704701387047002D06BF354603382F
:10026000073815F0010F07D1013015F4807F02BF68
:10027000013015F4C03F0130F0BC0138704700BFB9
:1002800081F0004102E000BF83F0004330B54FEA47
:1002900041044FEA430594EA050F08BF90EA020FB4
:1002A0001FBF54EA000C55EA020C7FEA645C7FEA47
:1002B000655C00F0E2804FEA5454D4EB5555B8BF6A
:1002C0006D420CDD2C4480EA020281EA030382EADB
:1002D000000083EA010180EA020281EA0303362D6D
:1002E00088BF30BD11F0004F4FEA01314FF4801C40
:1002F0004CEA113102D0404261EB410113F0004F52
:100300004FEA03334CEA133302D0524263EB430308
:1003100094EA050F00F0A780A4F10104D5F1200EA6
:100320000DDB02FA0EFC22FA05F2801841F1000101
:1003300003FA0EF2801843FA05F359410EE0A5F1D5
:1003400020050EF1200E012A03FA0EFC28BF4CF006
:10035000020C43FA05F3C01851EBE37101F00045BC
:1003600007D54FF0000EDCF1000C7EEB00006EEBC9
:100370000101B1F5801F1BD3B1F5001F0CD3490853
:100380005FEA30004FEA3C0C04F101044FEA4452AA
:1003900012F5800F80F09A80BCF1004F08BF5FEA31
:1003A000500C50F1000041EB045141EA050130BD11
:1003B0005FEA4C0C404141EB0101013C28BFB1F523
:1003C000801FE9D291F0000F04BF01460020B1FA6E
:1003D00081F308BF2033A3F10B03B3F120020CDA41
:1003E0000C3208DD02F1140CC2F10C0201FA0CF01F
:1003F00021FA02F10CE002F11402D8BFC2F1200C84
:1004000001FA02F120FA0CFCDCBF41EA0C01904039
:10041000E41AA2BF01EB0451294330BD6FEA040482
:100420001F3C1CDA0C340EDC04F11404C4F120026D
:1004300020FA04F001FA02F340EA030021FA04F37F
:1004400045EA030130BDC4F10C04C4F1200220FAD6
:1004500002F001FA04F340EA0300294630BD21FA14
:1004600004F0294630BD94F0000F83F4801306BFDA
:1004700081F480110134013D4EE77FEA645C18BFCE
:100480007FEA655C29D094EA050F08BF90EA020F65
:1004900005D054EA000C04BF1946104630BD91EA5D
:1004A000030F1EBF0021002030BD5FEA545C05D160
:1004B0004000494128BF41F0004130BD14F580049F
:1004C0003CBF01F5801130BD01F0004545F0FE4113
:1004D00041F470014FF0000030BD7FEA645C1ABF48
:1004E000194610467FEA655C1CBF0B46024650EA7F
:1004F000013406BF52EA033591EA030F41F40021AB
:1005000030BD00BF90F0000F04BF0021704730B530
:100510004FF4806404F132044FF000054FF0000105
:1005200050E700BF90F0000F04BF0021704730B5C6
:100530004FF4806404F1320410F0004548BF40429B
:100540004FF000013EE700BF42004FEAE2014FEAF0
:1005500031014FEA02701FBF12F07F4393F07F4FCB
:1005600081F06051704732F07F4208BF704793F0CE
:100570007F4F04BF41F40021704730B54FF46074E1
:1005800001F0004521F000411CE700BF50EA0102E4
:1005900008BF704730B54FF000050AE050EA01028D
:1005A00008BF704730B511F0004502D5404261EBFD
:1005B00041014FF4806404F132045FEA915C3FF43E
:1005C000D8AE4FF003025FEADC0C18BF03325FEADB
:1005D000DC0C18BF033202EBDC02C2F1200300FA8C
:1005E00003FC20FA02F001FA03FE40EA0E0021FAB1
:1005F00002F11444BDE600BF70B54FF0FF0C4CF49F
:10060000E06C1CEA11541DBF1CEA135594EA0C0F50
:1006100095EA0C0F00F0DEF82C4481EA030621EA8B
:100620004C5123EA4C5350EA013518BF52EA0335C6
:1006300041F4801143F4801338D0A0FB02CE4FF078
:100640000005E1FB02E506F00042E0FB03E54FF0A8
:100650000006E1FB03569CF0000F18BF4EF0010EA0
:10066000A4F1FF04B6F5007F64F5407404D25FEA9C
:100670004E0E6D4146EB060642EAC62141EA55514F
:100680004FEAC52040EA5E504FEACE2EB4F1FD0C91
:1006900088BFBCF5E06F1ED8BEF1004F08BF5FEA0F
:1006A000500E50F1000041EB045170BD06F00046C1
:1006B00046EA010140EA020081EA0301B4EB5C046E
:1006C000C2BFD4EB0C0541EA045170BD41F4801166
:1006D0004FF0000E013C00F3AB8014F1360FDEBF8B
:1006E000002001F0004170BDC4F10004203C35DA67
:1006F0000C341BDC04F11404C4F1200500FA05F3EA
:1007000020FA04F001FA05F240EA020001F000428A
:1007100021F0004110EBD37021FA04F642EB060100
:100720005EEA430E08BF20EAD37070BDC4F10C042A
:10073000C4F1200500FA04F320FA05F001FA04F2EE
:1007400040EA020001F0004110EBD37041F10001DA
:100750005EEA430E08BF20EAD37070BDC4F12005E5
:1007600000FA05F24EEA020E20FA04F301FA05F24D
:1007700043EA020321FA04F001F0004121FA04F2F5
:1007800020EA020000EBD3705EEA430E08BF20EAC5
:10079000D37070BD94F0000F0FD101F000464000FF
:1007A00041EB010111F4801F08BF013CF7D041EA81
:1007B000060195F0000F18BF704703F00046520085
:1007C00043EB030313F4801F08BF013DF7D043EA56
:1007D0000603704794EA0C0F0CEA135518BF95EA0C
:1007E0000C0F0CD050EA410618BF52EA4306D1D193
:1007F00081EA030101F000414FF0000070BD50EAB2
:10080000410606BF1046194652EA430619D094EA3B
:100810000C0F02D150EA013613D195EA0C0F05D125
:1008200052EA03361CBF104619460AD181EA030179
:1008300001F0004141F0FE4141F470014FF0000031
:1008400070BD41F0FE4141F4780170BD70B54FF0CC
:10085000FF0C4CF4E06C1CEA11541DBF1CEA13554C
:1008600094EA0C0F95EA0C0F00F0A7F8A4EB05042E
:1008700081EA030E52EA03354FEA013100F0888025
:100880004FEA03334FF0805545EA131343EA1263EE
:100890004FEA022245EA111545EA10654FEA0026A3
:1008A0000EF000419D4208BF964244F1FD0404F55C
:1008B000407402D25B084FEA3202B61A65EB0305B8
:1008C0005B084FEA32024FF480104FF4002CB6EB75
:1008D000020E75EB030E22BFB61A754640EA0C00F5
:1008E0005B084FEA3202B6EB020E75EB030E22BF35
:1008F000B61A754640EA5C005B084FEA3202B6EB76
:10090000020E75EB030E22BFB61A754640EA9C0034
:100910005B084FEA3202B6EB020E75EB030E22BF04
:10092000B61A754640EADC0055EA060E18D04FEAC2
:10093000051545EA16754FEA06164FEAC30343EA62
:1009400052734FEAC2025FEA1C1CC0D111F4801F2F
:100950000BD141EA00014FF000004FF0004CB6E728
:1009600011F4801F04BF01430020B4F1FD0C88BFC7
:10097000BCF5E06F3FF6AFAEB5EB030C04BFB6EBD2
:10098000020C5FEA500C50F1000041EB045170BDC5
:100990000EF0004E4EEA113114EB5C04C2BFD4EBF2
:1009A0000C0541EA045170BD41F480114FF0000E76
:1009B000013C90E645EA060E8DE60CEA135594EAF2
:1009C0000C0F08BF95EA0C0F3FF43BAF94EA0C0FF5
:1009D0000AD150EA01347FF434AF95EA0C0F7FF46A
:1009E00025AF104619462CE795EA0C0F06D152EABE
:1009F00003353FF4FDAE1046194622E750EA4106A2
:100A000018BF52EA43067FF4C5AE50EA41047FF4B2
:100A10000DAF52EA43057FF4EBAE12E74FF0FF3C17
:100A200006E000BF4FF0010C02E000BF4FF0010CE8
:100A30004DF804CD4FEA410C7FEA6C5C4FEA430C61
:100A400018BF7FEA6C5C1BD001B050EA410C0CBFB0
:100A500052EA430C91EA030F02BF90EA020F002012
:100A6000704710F1000F91EA030F58BF994208BF79
:100A700090422CBFD8176FEAE37040F00100704736
:100A80004FEA410C7FEA6C5C02D150EA013C07D18D
:100A90004FEA430C7FEA6C5CD6D152EA033CD3D0D8
:100AA0005DF8040B704700BF8446104662468C46D2
:100AB0001946634600E000BF01B5FFF7B7FF002805
:100AC00048BF10F1000F01BD4DF808EDFFF7F4FF2E
:100AD0000CBF012000205DF808FB00BF4DF808EDB9
:100AE000FFF7EAFF34BF012000205DF808FB00BFDC
:100AF0004DF808EDFFF7E0FF94BF012000205DF8FE
:100B000008FB00BF4DF808EDFFF7CEFF94BF0120B2
:100B100000205DF808FB00BF4DF808EDFFF7C4FFAB
:100B200034BF012000205DF808FB00BF4FEA410CF4
:100B30007FEA6C5C02D150EA013C0AD14FEA430CD7
:100B40007FEA6C5C02D152EA033C02D14FF0000014
:100B500070474FF0010070474FEA410212F5001252
:100B600015D211D56FF47873B3EB625212D94FEAF4
:100B7000C12343F0004343EA505311F0004F23FADE
:100B800002F018BF404270474FF00000704750EA33
:100B9000013005D111F0004008BF6FF000407047F0
:100BA0004FF00000704700BF53B94AB9002908BF91
:100BB00000281CBF4FF0FF314FF0FF3000F074B938
:100BC000ADF1080C6DE904CE00F006F8DDF804E0A4
:100BD000DDE9022304B070472DE9F047089D044683
:100BE0008E46002B4DD18A42944669D9B2FA82F2E0
:100BF00052B101FA02F3C2F1200120FA01F10CFA1C
:100C000002FC41EA030E94404FEA1C48210CBEFB53
:100C1000F8F61FFA8CF708FB16E341EA034306FBDC
:100C200007F199420AD91CEB030306F1FF3080F06B
:100C30001F81994240F21C81023E63445B1AA4B2B8
:100C4000B3FBF8F008FB103344EA034400FB07F75A
:100C5000A7420AD91CEB040400F1FF3380F00A819B
:100C6000A74240F207816444023840EA0640E41B90
:100C700000261DB1D4400023C5E900433146BDE83C
:100C8000F0878B4209D9002D00F0EF800026C5E9DE
:100C9000000130463146BDE8F087B3FA83F6002EF6
:100CA0004AD18B4202D3824200F2F980841A61EB6E
:100CB000030301209E46002DE0D0C5E9004EDDE78C
:100CC00002B9FFDEB2FA82F2002A40F09280A1EB74
:100CD0000C014FEA1C471FFA8CFE0126200CB1FBC9
:100CE000F7F307FB131140EA01410EFB03F08842C2
:100CF00008D91CEB010103F1FF3802D2884200F24F
:100D0000CB804346091AA4B2B1FBF7F007FB1011E0
:100D100044EA01440EFB00FEA64508D91CEB04047E
:100D200000F1FF3102D2A64500F2BB800846A4EBD9
:100D30000E0440EA03409CE7C6F12007B34022FAC4
:100D400007FC4CEA030C20FA07F401FA06F31C43F3
:100D5000F9404FEA1C4900FA06F3B1FBF9F8200C00
:100D60001FFA8CFE09FB181140EA014108FB0EF046
:100D7000884202FA06F20BD91CEB010108F1FF3A96
:100D800080F08880884240F28580A8F102086144A2
:100D9000091AA4B2B1FBF9F009FB101144EA0141B0
:100DA00000FB0EFE8E4508D91CEB010100F1FF345B
:100DB0006CD28E456AD90238614440EA0840A0FBF3
:100DC0000294A1EB0E01A142C846A64656D353D0C9
:100DD0005DB1B3EB080261EB0E0101FA07F722FAED
:100DE00006F3F1401F43C5E9007100263146BDE816
:100DF000F087C2F12003D8400CFA02FC21FA03F379
:100E0000914001434FEA1C471FFA8CFEB3FBF7F0F9
:100E100007FB10360B0C43EA064300FB0EF69E421E
:100E200004FA02F408D91CEB030300F1FF382FD2B7
:100E30009E422DD9023863449B1B89B2B3FBF7F65F
:100E400007FB163341EA034106FB0EF38B4208D938
:100E50001CEB010106F1FF3816D28B4214D9023E79
:100E60006144C91A46EA004638E72E46284605E797
:100E70000646E3E61846F8E64B45A9D2B9EB020868
:100E800064EB0C0E0138A3E74646EAE7204694E7F8
:100E90004046D1E7D0467BE7023B614432E730462B
:100EA00009E76444023842E7704700BF08B50268AA
:100EB000034B9A4200D008BD01F0A6F9FBE700BF42
:100EC0000004014072B6FEE700B595B03022002163
:100ED00008A805F0AFFF002303930493059306933E
:100EE000079301931F4A116C41F080511164126CF9
:100EF00002F080520192019A02931B4A116841F458
:100F000080411160126802F480420292029A022229
:100F1000089201210B9110210C910E920F9308233E
:100F20001093A823119312920423139308A800F09E
:100F300059FA98B90F2303930223049300230593CE
:100F40004FF4A05306934FF480530793052103A851
:100F500000F096FC20B915B05DF804FBFFF7B2FF76
:100F6000FFF7B0FF003802400070004008B501F004
:100F700031F9FFF7A9FF00F02BF804F0B5FB03F0FF
:100F8000E1FC03F001FD03F033FD04F05DFC04F02F
:100F9000E7FB05F06BF804F009FE04F039FE04F0FD
:100FA0006DFE04F0A1FE05F0F1F805F041F904F042
:100FB000A3FD03F0ADFC04F067FC03F0FFFC04F0BC
:100FC00045FD03F07BF800F0A3F803F089F8FEE795
:100FD0002DE9F0418CB000240794089409940A94F8
:100FE0000B9401943A4B1A6B42F010021A631A6B7D
:100FF00002F010020192019A02941A6B42F08002F0
:101000001A631A6B02F080020292029A03941A6B1E
:1010100042F004021A631A6B02F004020392039A6C
:1010200004941A6B42F001021A631A6B02F0010277
:101030000492049A05941A6B42F002021A631A6B26
:1010400002F002020592059A06941A6B42F0080219
:101050001A631B6B03F008030693069BDFF87C8082
:1010600022465021404600F0F1FD1A4F012218217E
:10107000384600F0EBFD184E22460221304600F0C3
:10108000E5FD502307930125089509940A9407A9C3
:10109000404600F0E9FC18230793089509940A9448
:1010A00007A9384600F0E0FC07950894099507A9C0
:1010B000304600F0D9FC02230793089509930A945F
:1010C00007A9304600F0D0FC0CB0BDE8F08100BFAD
:1010D00000380240000C02400010024000000240B4
:1010E00008B503F0CBFB03F0E7FB012003F072F837
:1010F000F9E708B5012003F06DF8FBE708B501201A
:1011000003F068F8FBE708B5012003F063F8FBE79C
:1011100008B50E4A00210E4802F0FEFF0D4B186084
:101120000D4A00210D4802F0F7FF0D4B18600D4AE3
:1011300000210D4802F0F0FF0C4B18600C4A002112
:101140000C4802F0E9FF0C4B186008BDB899000884
:10115000E110000800020020DC990008F3100008EC
:1011600004020020009A0008FD1000080802002078
:10117000249A0008071100080C020020FEE7FEE791
:10118000FEE7FEE7FEE7704708B5024800F0DCFE28
:1011900008BD00BF344C002008B5024800F0D4FE62
:1011A00008BD00BFD44B002008B5024800F0CCFEBB
:1011B00008BD00BFF44C002008B5024805F052F904
:1011C00008BD00BFBC4E002008B5024805F06CFB0E
:1011D00008BD00BF084F002008B5024805F064FBB9
:1011E00008BD00BF084F002008B5024805F05CFBB1
:1011F00008BD00BF084F002008B5024805F054FBA9
:1012000008BD00BF084F002008B5024801F01BF9D7
:1012100008BD00BF0450002008B5024801F013F9D2
:1012200008BD00BF9450002008B5024801F00BF93A
:1012300008BD00BFDC50002008B5024801F003F9EA
:1012400008BD00BF2451002008B5024804F010F882
:1012500008BD00BF544D002008B5024804F008F84E
:1012600008BD00BF9C4D002008B5024804F000F8FE
:1012700008BD00BFE44D002008B5024801F0E3F8C6
:1012800008BD00BF1002002008B5024801F0DBF8DD
:1012900008BD00BF6C51002008B5024803F0E8FF0C
:1012A00008BD00BF2C4E002008B5024803F0E0FF47
:1012B00008BD00BF744E002008B5024800F044FE8F
:1012C00008BD00BF944C002008B5024805F0ECFAB8
:1012D00008BD00BF304F002008B5024805F0E4FA11
:1012E00008BD00BF304F002008B5024805F0DCFA09
:1012F00008BD00BF304F002008B5024805F0D4FA01
:1013000008BD00BF304F002000B583B0002200921E
:101310000D4B596C41F480415964596C01F4804182
:10132000009100990192196C41F0805119641B6C75
:1013300003F080530193019B0F216FF0010000F037
:1013400003FF03B05DF804FB0038024030B589B0FC
:101350000546002401941E4B5A6C42F002025A6466
:101360005B6C03F002030193019B02A903A800F048
:101370005DFB00F04BFB43001648A0FB03239B0CD6
:10138000013B1548154A026040F2E732C2604360F3
:1013900004618460846101F06DF9044610B1204657
:1013A00009B030BD0C4801F005F804460028F6D11C
:1013B0002C2000F001FF0F2D01D90124EFE70022BE
:1013C00029462C2000F0C0FE054B1D60E7E700BF5A
:1013D0000038024083DE1B4310020020000401405D
:1013E00004000020002800F0E08170B582B00446BF
:1013F000036813F0010F3BD09F4B9B6803F00C0375
:10140000042B2CD09C4B9B6803F00C03082B21D0A1
:101410006368B3F5803F4FD0B3F5A02F52D0964B01
:101420001A6822F480321A601A6822F480221A6044
:101430006368002B50D000F0F3FE05468E4B1B680E
:1014400013F4003F14D100F0EBFE401B6428F5D9E3
:101450000320B1E1884B5B6813F4800FD8D0864B32
:101460001B6813F4003F03D06368002B00F09F81DA
:10147000236813F0020F54D07F4B9B6813F00C0FBE
:101480003ED07D4B9B6803F00C03082B33D0E36800
:10149000002B68D0794B01221A6000F0C1FE05468E
:1014A000754B1B6813F0020F54D100F0B9FE401BBE
:1014B0000228F5D903207FE16F4A136843F4803393
:1014C0001360B5E76C4B1A6842F480221A601A6800
:1014D00042F480321A60ABE700F0A2FE0546664B8C
:1014E0001B6813F4003FC3D000F09AFE401B642831
:1014F000F5D9032060E1604B5B6813F4800FC6D11F
:101500005D4B1B6813F0020F03D0E368012B40F022
:101510005081594A136823F0F803216943EAC10353
:101520001360236813F0080F42D063696BB3534B09
:101530000122C3F8802E00F073FE05464E4B5B6F10
:1015400013F0020F34D100F06BFE401B0228F5D9D6
:10155000032031E1484A136823F0F803216943EA84
:10156000C1031360DDE7454B00221A6000F058FE0E
:101570000546414B1B6813F0020FD2D000F050FE1D
:10158000401B0228F5D9032016E13C4B0022C3F88A
:10159000802E00F045FE0546374B5B6F13F0020FBF
:1015A00006D000F03DFE401B0228F5D9032003E1E0
:1015B000236813F0040F77D02F4B1B6C13F0805F60
:1015C00033D1002301932C4B1A6C42F080521A64E1
:1015D0001B6C03F080530193019B0125284B1B6872
:1015E00013F4807F23D0A368012B34D0052B38D08F
:1015F000214B1A6F22F001021A671A6F22F00402BF
:101600001A67A368002B3DD000F00AFE06461A4B6D
:101610001B6F13F0020F46D100F002FE801B41F257
:1016200088339842F3D90320C6E00025D6E7144A50
:10163000136843F48073136000F0F2FD0646104B0C
:101640001B6813F4807FCED100F0EAFD801B0228D6
:10165000F5D90320B0E0084A136F43F00103136784
:10166000CFE7054B1A6F42F004021A671A6F42F077
:1016700001021A67C5E700BF003802400000474278
:101680000070004000F0CCFD0646524B1B6F13F07B
:10169000020F08D000F0C4FD801B41F2883398424D
:1016A000F3D9032088E0EDB9A369002B00F0838013
:1016B000484A926802F00C02082A51D0022B17D037
:1016C000454B00221A6600F0ABFD0446414B1B68F7
:1016D00013F0007F42D000F0A3FD001B0228F5D9D3
:1016E000032069E03B4A136C23F080531364DBE76B
:1016F000394B00221A6600F093FD0546354B1B68F6
:1017000013F0007F06D000F08BFD401B0228F5D9B6
:10171000032051E0E369226A1343626A43EA8213B9
:10172000A26A5208013A43EA0243E26A43EA0263C8
:10173000284A5360284B01221A6600F071FD0446C6
:10174000244B1B6813F0007F06D100F069FD001BDD
:101750000228F5D903202FE000202DE000202BE007
:10176000012B2BD01B4B5B6803F48001E269914293
:1017700026D103F03F02216A8A4223D1616A47F6EB
:10178000C0721A40B2EB811F1ED103F44031A26A2D
:101790005208013AB1EB024F18D103F07063E26ACC
:1017A000B3EB026F14D1002006E001207047012046
:1017B00002E0012000E0002002B070BD0120FBE744
:1017C0000120F9E70120F7E70120F5E70120F3E721
:1017D0000120F1E7003802400000474208B5254BE0
:1017E0009B6803F00C03042B3FD0082B3FD1214B07
:1017F0005A6802F03F025B6813F4800F12D01D4B51
:101800005968C1F388111C480023A1FB0001FFF7B0
:10181000CBF9184B5B68C3F3014301335B00B0FBAA
:10182000F3F025E0134B5968C1F3881C4FEA4C11C3
:10183000B1EB0C006EEB0E0E4FEA8E1343EA906391
:101840008101091A63EB0E03DB0043EA5173C900FF
:1018500011EB0C0C43F10003990200234FEA8C209A
:1018600041EA9C51FFF7A0F9D3E7034800E00348A1
:1018700008BD00BF0038024040787D010024F4001C
:10188000002800F09B8070B50D4604464F4B1B6846
:1018900003F007038B4208D2CBB24C4A1370136893
:1018A00003F007038B4240F08B80236813F0020F94
:1018B00017D013F0040F04D0454A936843F4E05363
:1018C0009360236813F0080F04D0414A936843F4EF
:1018D000604393603E4A936823F0F003A1680B4392
:1018E0009360236813F0010F32D06368012B21D07D
:1018F0009A1E012A25D9364A126812F0020F61D0C9
:1019000033498A6822F0030213438B6000F088FC9D
:1019100006462F4B9B6803F00C036268B3EB820F03
:1019200016D000F07DFC801B41F288339842F0D93C
:10193000032042E0264A126812F4003FE0D1012061
:101940003BE0234A126812F0007FD9D1012034E035
:101950001E4B1B6803F00703AB4207D9EAB21B4BCF
:101960001A701B6803F00703AB422DD1236813F0F4
:10197000040F06D0164A936823F4E053E1680B4342
:101980009360236813F0080F07D0114A936823F47B
:101990006043216943EAC1039360FFF71FFF0C4BCB
:1019A0009B68C3F303130B4AD35CD8400A4B1860FF
:1019B0000A4B1868FFF7CAFC002070BD0120704771
:1019C0000120FAE70120F8E70120F6E7003C024099
:1019D00000380240509A000808000020040000204F
:1019E000014B1868704700BF0800002008B5FFF7DA
:1019F000F7FF044B9B68C3F38223034AD35CD840B0
:101A000008BD00BF00380240609A000808B5FFF723
:101A1000E7FF044B9B68C3F34233034AD35CD840CF
:101A200008BD00BF00380240609A00080F23036021
:101A30000B4B9A6802F0030242609A6802F0F002CF
:101A400082609A6802F4E052C2609B68DB0803F48B
:101A5000E0530361034B1B6803F007030B607047FF
:101A600000380240003C024000230F2B00F2E480CB
:101A700070B582B060E085685E000324B44025EA5A
:101A80000405CC68B4402C438460456825EA02050F
:101A90004C68C4F300129A402A4342605AE0DC08C2
:101AA000083450F8246003F0070295000F22AA4082
:101AB00026EA020E0A69AA4042EA0E0240F82420F1
:101AC0005CE0072200E0002202FA0EF22A43023410
:101AD0005A4D45F824205A4A94686FEA0C0224EAC9
:101AE0000C054E6816F4801F01D04CEA0405544CD6
:101AF000A560E46802EA04054E6816F4001F01D0F0
:101B00004CEA04054E4CE560646802EA04054E6840
:101B100016F4003F01D04CEA0405494C6560246886
:101B200022404D6815F4803F01D04CEA0402444C39
:101B3000226001330F2B7DD801229A400C6804EA01
:101B4000020C32EA0404F4D14C6804F00304013CB2
:101B5000012C90D94A6802F00302032A09D0C46814
:101B60005D000322AA4024EA02048A68AA402243B4
:101B7000C2604A6802F00302022A90D004684FEA69
:101B8000430E032202FA0EF224EA02044A6802F02B
:101B9000030202FA0EF2224302604A6812F4403F46
:101BA000C7D000220192274A546C44F48044546404
:101BB000526C02F480420192019A9C08A51C1F4AB3
:101BC00052F8255003F003024FEA820E0F2202FA68
:101BD0000EF225EA02051C4A90423FF474AF02F56A
:101BE000806290421AD002F58062904218D002F5CD
:101BF0008062904216D002F58062904214D002F5C5
:101C00008062904212D002F58062904210D002F5BC
:101C1000806290423FF455AF082255E7012253E716
:101C2000022251E703224FE704224DE705224BE74A
:101C3000062249E702B070BD704700BF003801407E
:101C4000003C014000380240000002400AB18161BE
:101C5000704709048161704730B405682C6824F42A
:101C600080242C60046863608368402B05D003687F
:101C700099600368DA6030BC704703689A60036853
:101C8000D960F8E710B40368D9B210390C4AA2FB46
:101C9000014212090B4CA25CC2655F2909D923F4E9
:101CA0007F7323F0030304338365806D5DF8044B79
:101CB000704723F47F7323F003038365F5E700BFC8
:101CC000ABAAAAAA489A0008836A826992B9012B32
:101CD0000AD0022B02D00BB100207047C36A13F068
:101CE000807F28D100207047C36AB3F1C07F24D021
:101CF00000207047B2F5005F09D0022B25D9032BD5
:101D000025D1C36A13F0807F23D100207047032BB5
:101D100003D8DFE803F01404140A00207047C36AF4
:101D200013F0807F0DD100207047C36AB3F1C07FEC
:101D300009D0002070470120704701207047012022
:101D40007047012070470120704701207047002034
:101D5000704701207047000070B5044600F060FA3B
:101D6000002C5BD00546022384F83530002384F82C
:101D700034302268136823F00103136023681A6863
:101D800012F0010F0AD000F04BFA431B052BF5D9D6
:101D900020236365032084F8350070BD1A6820484D
:101DA00010406168A2680A43E1680A4321690A4356
:101DB00061690A43A1690A43E1690A43216A0A4346
:101DC0000243616A04291ED01A602668756925F0ED
:101DD0000705636A1D43042B07D1A36A1D43E36A09
:101DE0001BB12046FFF770FF90B975612046FFF7E1
:101DF00049FFE26D3F23934083600020606501232B
:101E000084F83530C9E7E16A206B01430A43DBE718
:101E100040236365012084F83500BEE70120BCE75C
:101E20003F8010F038B50446856D90F834000128E5
:101E30002BD0012084F8340094F83500C0B201287A
:101E400004D0002384F83430022038BD022084F806
:101E50003500002060652046FFF7FEFEE26D3F235F
:101E60009340AB602268136843F016031360236C41
:101E700023B12268136843F00803136022681368D3
:101E800043F0010313600020DFE70220DDE770B5B7
:101E90000446866D00F0C4F994F83530DBB2022BAD
:101EA00006D080236365002384F83430012070BDA0
:101EB00005462268136823F01603136022685369ED
:101EC00023F080035361236CE3B12268136823F08D
:101ED000080313602268136823F00103136023686A
:101EE0001B6813F0010F11D000F09AF9431B052B6A
:101EF000F5D920236365032084F83500002384F896
:101F00003430D4E7A36C002BDFD1E3E7E26D3F234D
:101F10009340B360012384F83530002084F8340006
:101F2000C5E790F83530DBB2022B03D08023436540
:101F300001207047052380F835300268136823F0CC
:101F40000103136000207047F0B583B004460023FE
:101F50000193724B1D68724BA3FB0535AD0A876D6B
:101F60003E68C26D08239340334210D003681A685C
:101F700012F0040F0BD01A6822F004021A60C26D2E
:101F800008239340BB60436D43F001034365E26D5A
:101F900001239340334209D02268526912F0800F26
:101FA00004D0BB60636D43F002036365E26D0423FC
:101FB0009340334209D02268126812F0020F04D015
:101FC000BB60636D43F004036365E26D10239340CF
:101FD000334224D02268126812F0080F1FD0BB6071
:101FE00023681A6812F4802F0DD01B6813F4002F99
:101FF00004D1236C9BB12046984710E0A36C73B1C9
:10200000204698470BE01A6812F4807F03D11A68C3
:1020100022F008021A60236C0BB120469847E26D4B
:1020200020239340334255D02268126812F0100FDB
:1020300050D0BB6094F83530DBB2052B0ED023684E
:102040001A6812F4802F33D01B6813F4002F2AD1A2
:10205000636C002B3ED0204698473BE02268136813
:1020600023F0160313602268536923F08003536141
:10207000236CA3B12268136823F008031360E26D98
:102080003F239340BB60012384F83530002384F85C
:102090003430236D002B3FD0204698473CE0A36CA2
:1020A000002BE7D1EBE7E36BA3B12046984711E0A3
:1020B0001A6812F4807F09D11A6822F010021A609F
:1020C000012384F83530002384F83430E36B0BB1FE
:1020D00020469847636DFBB1636D13F0010F17D075
:1020E000052384F835302268136823F00103136058
:1020F000019B01330193AB4204D823681B6813F0A2
:10210000010FF5D1012384F83530002384F83430F1
:10211000E36C0BB12046984703B0F0BD08000020E7
:10212000B5814E1B074AD36823F4E0631B041B0CE4
:10213000000200F4E060034343F0BF6343F4003364
:10214000D360704700ED00E000B5194BDB68C3F3C6
:102150000223C3F1070CBCF1040F28BF4FF0040C9D
:1021600003F1040EBEF1060F18D9033B4FF0FF3EFA
:102170000EFA0CFC21EA0C0199400EFA03F322EA54
:102180000303194300280BDB0901C9B200F16040C9
:1021900000F5614080F800135DF804FB0023E5E7DB
:1021A00000F00F000901C9B2024B1954F4E700BF57
:1021B00000ED00E014ED00E0002807DB00F01F0256
:1021C000400901239340024A42F82030704700BF83
:1021D00000E100E008B50B4B1A6842F400721A6087
:1021E0001A6842F480621A601A6842F480721A60B7
:1021F0000320FFF797FF0F20FFF7A8F8FFF784F8F9
:10220000002008BD003C0240034A1168034B1B78C4
:102210000B441360704700BF5802002000000020EC
:10222000014B1868704700BF5802002030B4036AA1
:10223000026A22F0010202624268846924F0730497
:102240000D682C4323F0020C8B6843EA0C03104DFD
:10225000A84203D005F58065A84205D123F0080304
:10226000CD682B4323F00403094DA84203D005F5A4
:102270008065A84205D122F440724D692A438D69D8
:102280002A43426084614A684263036230BC7047FB
:102290000000014030B4036A026A22F480720262D4
:1022A0004268C46924F0730C0C6844EA0C0523F4FA
:1022B00000738C6843EA0423114CA04203D004F558
:1022C0008064A04206D123F40063CC6843EA04236F
:1022D00023F480630A4CA04203D004F58064A0423A
:1022E00007D122F440524C6942EA04128C6942EA56
:1022F00004124260C5614A68C263036230BC704721
:102300000000014030B4036A026A22F48052026283
:102310004468C26922F4E6420D6842EA052223F4C9
:1023200000538D6843EA0533094DA84203D005F5F3
:102330008065A84204D124F480444D6944EA8514A0
:102340004460C2614A680264036230BC704700BFE7
:102350000000014010B4036A046A24F0010404621E
:10236000846924F0F00C4CEA021223F00A030B43B8
:10237000826103625DF8044B704710B4036A046A1B
:1023800024F010040462846924F4704C4CEA023294
:1023900023F0A00343EA0113826103625DF8044B5A
:1023A0007047836823F070030B4343F00703836097
:1023B0007047000090F83D30DBB2012B37D102238B
:1023C00080F83D300268D36843F00103D3600368AE
:1023D000194A934220D0B3F1804F1DD0A2F57C4220
:1023E000934219D002F58062934215D002F58062C3
:1023F000934211D002F5784293420DD002F570520B
:10240000934209D0A2F59432934205D01A6842F063
:1024100001021A60002070479A6802F00702062A3B
:1024200007D01A6842F001021A60002070470120AC
:1024300070470020704700BF0000014070477047A0
:1024400070477047704770B504460368DE681D69C1
:1024500015F0020F10D016F0020F0DD06FF002022F
:102460001A610123037703689B6913F0030F5ED0A1
:10247000FFF7E6FF0023237715F0040F12D016F0C4
:10248000040F0FD023686FF004021A610223237730
:1024900023689B6913F4407F4FD02046FFF7D0FF9D
:1024A0000023237715F0080F12D016F0080F0FD075
:1024B00023686FF008021A61042323772368DB691D
:1024C00013F0030F40D02046FFF7BAFF0023237715
:1024D00015F0100F12D016F0100F0FD023686FF008
:1024E00010021A61082323772368DB6913F4407F05
:1024F00031D02046FFF7A4FF0023237715F0010F0A
:1025000002D016F0010F2DD115F0800F02D016F079
:10251000800F2FD115F0400F02D016F0400F31D1AF
:1025200015F0200F02D016F0200F33D170BDFFF749
:1025300086FF2046FFF785FF9CE72046FFF77FFFD9
:102540002046FFF77EFFABE72046FFF778FF2046E7
:10255000FFF777FFBAE72046FFF771FF2046FFF746
:1025600070FFC9E723686FF001021A612046FEF789
:102570009DFCC9E723686FF080021A61204600F0D5
:10258000CFFAC7E723686FF040021A612046FFF7D1
:1025900059FFC5E723686FF020021A61204600F05A
:1025A000BEFAC3E70368324A904212D0B0F1804FBE
:1025B0000FD0A2F57C4290420BD002F5806290428F
:1025C00007D002F58062904203D002F57842904233
:1025D00003D123F070034A681343254A90422AD05E
:1025E000B0F1804F27D0A2F57C42904223D002F573
:1025F000806290421FD002F5806290421BD002F5AB
:102600007842904217D002F57052904213D002F5F2
:10261000806290420FD002F5806290420BD0A2F50A
:102620009832904207D002F58062904203D002F5C2
:102630008062904203D123F44073CA68134323F0AD
:1026400080034A6913438A68C2620A688262084A40
:10265000904203D002F58062904201D10A69026380
:10266000026842F004020260012242610360704786
:102670000000014040B310B5044690F83D30F3B17E
:10268000022384F83D30214651F8040BFFF78AFFFE
:10269000012384F8463084F83E3084F83F3084F8D3
:1026A000403084F8413084F8423084F8433084F874
:1026B000443084F8453084F83D30002010BD80F867
:1026C0003C3003F047FBDBE70120704740B310B517
:1026D000044690F83D30F3B1022384F83D302146A2
:1026E00051F8040BFFF75EFF012384F8463084F8AD
:1026F0003E3084F83F3084F8403084F8413084F82C
:10270000423084F8433084F8443084F8453084F80B
:102710003D30002010BD80F83C30FFF78FFEDBE736
:1027200001207047002856D0F8B50D46044690F8B1
:102730003D30002B4AD0022384F83D302268936854
:1027400023F4804323F007039360214651F8040BE0
:10275000FFF728FF21688A688B690E6A2868104392
:1027600023F4407C2CF0030CAA68AB6942EA0323F3
:1027700043EA0C0323F47C4323F0FC03EA69EF688B
:1027800047EA022C4CEA030C2A6A13032A6943EA3B
:10279000021343EA0C0326F0AA066A686D6942EA4E
:1027A00005123243886021688B6123681A62012315
:1027B00084F8463084F83E3084F83F3084F8423064
:1027C00084F8433084F83D300020F8BD80F83C3078
:1027D00003F006FBAFE701207047000030B4036A46
:1027E000026A22F0100202624468826922F4E64220
:1027F0000D6842EA052223F020038D6843EA0513A1
:10280000114DA84203D005F58065A84206D123F0FA
:102810008003CD6843EA051323F040030A4DA84224
:1028200003D005F58065A84207D124F440644D69C2
:1028300044EA85048D6944EA8504446082614A68FB
:102840008263036230BC70470000014038B590F8E5
:102850003C30012B66D004460D46012380F83C3005
:102860000C2A5AD8DFE802F0075959591B5959590F
:102870003059595944000068FFF7D8FC2268936921
:1028800043F0080393612268936923F00403936182
:102890002268936929690B43936100203EE0006838
:1028A000FFF79CFF2268936943F4006393612268F9
:1028B000936923F48063936122689369296943EAE9
:1028C00001239361002029E00068FFF7E3FC226800
:1028D000D36943F00803D3612268D36923F004036A
:1028E000D3612268D36929690B43D361002015E0C5
:1028F0000068FFF707FD2268D36943F40063D361E2
:102900002268D36923F48063D3612268D36929697B
:1029100043EA0123D361002000E00120002384F872
:102920003C3038BD0220FCE710B4846824F47F4CAE
:1029300042EA03220A4342EA0C0282605DF8044B39
:10294000704790F83C30012B78D010B50446012335
:1029500080F83C30022380F83D300268936823F40D
:102960007F4323F0770393600B68602B4CD029D80A
:10297000402B54D00CD9502B22D1CA68496800682A
:10298000FFF7E8FC50212068FFF70BFD002005E071
:10299000202B0DD009D9302B0AD00120012384F837
:1029A0003D30002384F83C3010BD0BB1102B05D115
:1029B00019462068FFF7F5FC0020EFE70120EDE75E
:1029C0000120EBE7B3F5805F34D0B3F5005F0CD1A5
:1029D000CB684A6889680068FFF7A6FF2268936899
:1029E00043F4804393600020D8E7702B24D1CB6858
:1029F0004A6889680068FFF797FF2268936843F088
:102A0000770393600020C9E7CA6849680068FFF748
:102A1000B4FC60212068FFF7C4FC0020BEE7CA6850
:102A200049680068FFF796FC40212068FFF7B9FC71
:102A30000020B3E70020B1E70120AFE70220704794
:102A400090F83C30012B3DD010B4012380F83C308D
:102A5000022380F83D3003685A689C6822F0700CAD
:102A60000A6842EA0C025A600368174A93421AD075
:102A7000B3F1804F17D0A2F57C42934213D002F5F8
:102A8000806293420FD002F5806293420BD002F530
:102A90007842934207D002F57052934203D0A2F5D8
:102AA0009432934204D124F080044A6814439C6019
:102AB000012380F83D30002380F83C3018465DF853
:102AC000044B7047022070470000014090F83C30F2
:102AD000012B22D0012380F83C30CB6823F44073D3
:102AE0008A68134323F480634A68134323F4006322
:102AF0000A68134323F480530A69134323F40053F1
:102B00004A69134323F48043CA6913430268536438
:102B1000002380F83C301846704702207047704709
:102B200070470000034AD2F8883043F47003C2F8BB
:102B30008830704700ED00E000F1080343604FF07B
:102B4000FF328260C360036100230360704700238B
:102B50000361704743684B609A688A60516099606E
:102B60000861036801330360704730B40D68B5F144
:102B7000FF3F11D000F108031C465B681A68AA42A7
:102B8000FAD963684B6099608C6061600861036882
:102B90000133036030BC70470469F2E703694168A0
:102BA00082688A60416851605A68824206D0002279
:102BB00002611A68013A1A601868704782685A60A0
:102BC000F5E710B5044601F0B5FCA26BE36B9A4241
:102BD00004D0002401F0D0FC204610BD0124F9E708
:102BE00010B5044601F0A6FCA36B23B9012401F043
:102BF000C3FC204610BD0024F9E770B50446154615
:102C0000866B026C5AB903681BB100200136A663BB
:102C100070BD806800F0D4FF0023A360F6E76DB9B3
:102C2000406804F0F9F8226C636813446360A2689A
:102C3000934219D3236863602846E7E7C06804F02D
:102C4000EBF8226C5142E3689B1AE36022689342DE
:102C500002D2A3680B44E360022D01D00020D5E727
:102C600026B1013E0020D1E72846CFE70020CDE77E
:102C70000346026C6AB110B50846D9681144D960A0
:102C80009C68A14201D31968D960D96804F0C4F8DE
:102C900010BD704738B5054601F04CFC95F845402D
:102CA00064B201E0013C64B2002C0ADD6B6A43B1FE
:102CB00005F1240000F0DAFE0028F3D000F06AFFEE
:102CC000F0E7FF2385F8453001F056FC01F032FCB7
:102CD00095F8444064B201E0013C64B2002C0ADD86
:102CE0002B6943B105F1100000F0C0FE0028F3D0BD
:102CF00000F050FFF0E7FF2385F8443001F03CFC82
:102D000038BD38B5E0B10D46044601F013FC236828
:102D1000E26B216C01FB0230A0600020A0636360C5
:102D2000013A02FB0133E360FF2384F8443084F866
:102D30004530FDB9236963B901F01EFC012038BD9F
:102D40004FF0500383F31188BFF36F8FBFF34F8FA2
:102D5000FEE704F1100000F089FE0028ECD04FF0EF
:102D6000E0234FF08052C3F8042DBFF34F8FBFF321
:102D70006F8FE1E704F11000FFF7DEFE04F124009D
:102D8000FFF7DAFED8E738B51D46049C0B4649B973
:102D90002460E063236401212046FFF7B2FF84F83A
:102DA0004C5038BD2260F4E740B94FF0500383F334
:102DB0001188BFF36F8FBFF34F8FFEE710B584B05C
:102DC0001C46844653B192B189B94FF0500383F346
:102DD0001188BFF36F8FBFF34F8FFEE74FF05003A3
:102DE00083F31188BFF36F8FBFF34F8FFEE76AB194
:102DF00050230393039B502B13D04FF0500383F3C6
:102E00001188BFF36F8FBFF34F8FFEE70029EFD01C
:102E10004FF0500383F31188BFF36F8FBFF34F8FD1
:102E2000FEE7039B012384F8463000949DF8183098
:102E30006046FFF7A8FF204604B010BDF0B585B08E
:102E4000019288B10F461D460446B1B1022D20D132
:102E5000E36B012B1DD04FF0500383F31188BFF3B8
:102E60006F8FBFF34F8FFEE74FF0500383F311884E
:102E7000BFF36F8FBFF34F8FFEE7036C002BE5D0DE
:102E80004FF0500383F31188BFF36F8FBFF34F8F61
:102E9000FEE700F085FE064658B9019B002B48D09E
:102EA0004FF0500383F31188BFF36F8FBFF34F8F41
:102EB000FEE700263DE02A4639462046FFF79DFE04
:102EC000636A7BB948B14FF0E0234FF08052C3F8FA
:102ED000042DBFF34F8FBFF36F8F01F04DFB012027
:102EE00005B0F0BD04F1240000F0C0FD0028F4D0CE
:102EF0004FF0E0234FF08052C3F8042DBFF34F8F03
:102F0000BFF36F8FE9E701F037FB0020E8E702A885
:102F100000F0F2FD012619E0002384F8443021E09E
:102F2000002384F8453023E02046FFF7B3FE00F08D
:102F30007DFC01F0FFFAA26BE36B9A42BBD3022D3A
:102F4000B9D0019B002BDED0002EE0D001F014FBA5
:102F500000F0D2FB01F0EEFA94F8442052B2B2F144
:102F6000FF3FD9D094F8452052B2B2F1FF3FD7D0FD
:102F700001F002FB01A902A800F0CAFDD8B9204661
:102F8000FFF71FFE0028CFD0019904F1100000F0D8
:102F900039FD2046FFF77EFE00F048FC0028C8D12E
:102FA0004FF0E0234FF08052C3F8042DBFF34F8F52
:102FB000BFF36F8FBDE72046FFF76CFE00F036FCD5
:102FC00000208DE72DE9F84390B10F4616461C46C8
:102FD0000546B1B1022C20D1EB6B012B1DD04FF077
:102FE000500383F31188BFF36F8FBFF34F8FFEE75A
:102FF0004FF0500383F31188BFF36F8FBFF34F8FF0
:10300000FEE7036C002BE5D04FF0500383F31188EB
:10301000BFF36F8FBFF34F8FFEE701F0B1FBEFF30C
:1030200011894FF0500383F31188BFF36F8FBFF303
:103030004F8FAA6BEB6B9A4206D3022C04D0002070
:1030400089F31188BDE8F88395F845804FFA88F830
:10305000AB6B224639462846FFF7CFFDB8F1FF3F5C
:1030600006D008F101035BB285F845300120E7E79F
:103070006B6A0BB90120E3E705F1240000F0F6FCD0
:1030800018B126B101203060DAE70120D8E701202D
:10309000D6E7F0B585B0019290B10F460446C1B1B4
:1030A00000F07EFD064600BB019B002B5ED04FF07A
:1030B000500383F31188BFF36F8FBFF34F8FFEE789
:1030C0004FF0500383F31188BFF36F8FBFF34F8F1F
:1030D000FEE7036C002BE3D04FF0500383F311881D
:1030E000BFF36F8FBFF34F8FFEE700263EE03946F8
:1030F0002046FFF7BDFD013DA563236923B901F01B
:103100003BFA012005B0F0BD04F1100000F0AEFC68
:103110000028F4D04FF0E0234FF08052C3F8042D84
:10312000BFF34F8FBFF36F8FE9E701F025FA00205F
:10313000E8E702A800F0E0FC012621E0002384F883
:10314000443029E0002384F845302BE02046FFF787
:10315000A1FD00F06BFB09E02046FFF79BFD00F0AE
:1031600065FB2046FFF73CFD00283FD101F0E2F966
:10317000A56B002DBBD1019B002BD6D0002ED8D043
:1031800001F0FAF900F0B8FA01F0D4F994F84430FB
:103190005BB2B3F1FF3FD1D094F845305BB2B3F1ED
:1031A000FF3FCFD001F0E8F901A902A800F0B0FC80
:1031B0000028D1D12046FFF713FD0028C6D0019981
:1031C00004F1240000F01EFC2046FFF763FD00F030
:1031D0002DFB0028CAD14FF0E0234FF08052C3F8F6
:1031E000042DBFF34F8FBFF36F8FBFE7002089E738
:1031F0000023072B0CD8074A52F833200AB10133B9
:10320000F7E7044A42F8331002EBC30358607047F3
:10321000704700BF5C02002070B504460D4616469C
:1032200001F088F994F844305BB2B3F1FF3F0DD060
:1032300094F845305BB2B3F1FF3F0BD001F09CF93D
:10324000A36B5BB12046FFF725FD70BD002384F81A
:103250004430EDE7002384F84530EFE73246294655
:1032600004F1240000F0E6FBECE70000084B1B68CB
:103270001B6823B9074B4FF0FF321A607047044BAD
:103280001B68DB68DB685A68024B1A60704700BF36
:10329000A0020020480700202DE9F04780460D4697
:1032A00017469946089EDDF824A00A9C9200A521A5
:1032B000206B03F0BFFD236B07F18042013A03EB63
:1032C000820727F00707B5B34FF0000CBCF10F0FD2
:1032D0000BD815F80C2004EB0C0383F8342015F8F8
:1032E0000C3013B10CF1010CF0E7002384F84330EB
:1032F000372E00D93726E662E66400252565201DB5
:10330000FFF725FC04F11800FFF721FC2461C6F14A
:103310003806A6616462656584F858504A4641469D
:10332000384601F0DBF82060BAF1000F01D0CAF88E
:103330000040BDE8F087002384F83430D8E700006F
:1033400038B5002407E004EB840293000E481844CB
:10335000FFF7F2FB0134372CF5D90C4D2846FFF767
:10336000EBFB0B4C2046FFF7E7FB0A48FFF7E4FBBB
:103370000948FFF7E1FB0948FFF7DEFB084B1D603A
:10338000084B1C6038BD00BFA80200201C070020AD
:103390003007002054070020800700206C07002021
:1033A000A0020020A402002010B5044601F0C2F8DB
:1033B000224A136801331360214B1B685BB1214B18
:1033C0001B686BB91E4B1B68DA6AE36A9A4207D81E
:1033D0001B4B1C6004E01A4B1C601368012B29D0A6
:1033E000194A1368013313606364E06A174B1B6862
:1033F000984201D9154B186000EB8000211D144B39
:1034000003EB8000FFF7A6FB01F0B6F80D4B1B683D
:103410007BB10B4B1B68DA6AE36A9A4209D24FF020
:10342000E0234FF08052C3F8042DBFF34F8FBFF35A
:103430006F8F10BDFFF784FFD2E700BF08070020A1
:103440009C020020680700201407002018070020B5
:10345000A802002010B5044690F8593063B1012B42
:1034600011D0022B0ED04FF0500383F31188BFF31D
:103470006F8FBFF34F8FFEE7006B00F0B3FF204666
:1034800000F0B0FF10BD00F0ADFFFBE70F4B1B6875
:10349000D3B110B501F04EF80D4BDB68DC68201D90
:1034A000FFF77CFB0B4A1368013B1360074A136864
:1034B000013B136001F060F82046FFF7CBFF034BA0
:1034C0001B68002BE6D110BD704700BF0C07002021
:1034D000800700200807002008B5FFF7D7FF074B3B
:1034E0001B68012BF9D94FF0E0234FF08052C3F84D
:1034F000042DBFF34F8FBFF36F8FEEE7A8020020BC
:1035000070B504460D46174B1E68174B18680430FB
:10351000FFF744FBB4F1FF3F0DD03444124B1B685E
:103520005C60A64210D9114B18680F4B1968043122
:10353000FFF71BFB70BD002DEFD00B4B196804315A
:103540000B48FFF707FBF5E70A4B1868064B1968AD
:103550000431FFF70AFB084B1B68A342EAD9064B6C
:103560001C60E7E7940700209C020020A4020020D2
:103570006C070020A00200204807002030B587B06B
:103580000B9C7CB10C9DB5B15C250495049D5C2D14
:103590001AD04FF0500383F31188BFF36F8FBFF33E
:1035A0004F8FFEE74FF0500383F31188BFF36F8F07
:1035B000BFF34F8FFEE74FF0500383F31188BFF343
:1035C0006F8FBFF34F8FFEE7049D0C9D2C63022489
:1035D00085F8594000240394029505AC01940A9C97
:1035E0000094FFF759FE0C98FFF7DEFE059807B030
:1035F00030BD2DE9F04385B00746884614461E4687
:10360000900000F071FE00B381465C2000F06CFE7B
:103610000546B0B1C0F83090E5B1002385F85930C7
:10362000039302950D9B01930C9B00933346224616
:1036300041463846FFF730FE2846FFF7B5FE012029
:1036400005E0484600F0CEFEE6E74FF0FF3005B05B
:10365000BDE8F0834FF0FF30F9E7000010B588B007
:1036600000240594069407AA06A905A800F0C0FD49
:10367000059B0293069B019300942346079A1849E1
:103680001848FFF77BFF184B186040B100F04CFB67
:10369000012806D0B0F1FF3F18D008B010BD0020BF
:1036A000F6E74FF0500383F31188BFF36F8FBFF33A
:1036B0004F8F0E4B4FF0FF321A600D4B01221A60F4
:1036C0000C4B00221A6000F0CFFFE6E74FF05003EA
:1036D00083F31188BFF36F8FBFF34F8FFEE700BFF7
:1036E000689A0008D93400084407002048070020E1
:1036F0006807002094070020024A13680133136012
:10370000704700BF10070020014B1868704700BFCA
:1037100094070020F8B53A4B1B68002B69D1394B50
:103720001D6801351D60C5B9374B1B681B6843B167
:103730004FF0500383F31188BFF36F8FBFF34F8FA8
:10374000FEE7314A1168314B186810601960304A41
:10375000136801331360FFF789FD2E4B1B68AB42E2
:103760003DD900272C4B1B68DB6A03EB83039A00CF
:103770002A4B9B58012B00D90127294B1B68002B92
:103780003CD001273AE001271F4B1B681B6843B35D
:103790001D4B1B68DB68DC6863689D4226D3261DD1
:1037A0003046FFF7FBF9A36A1BB104F11800FFF7DD
:1037B000F5F9E36A1B4A1268934201D9194A13606A
:1037C00003EB83039A00314614481044FFF7C2F913
:1037D000E26A114B1B68DB6A9A42D4D2D4E7002715
:1037E000D2E70C4B4FF0FF321A60BBE7094A136077
:1037F000B8E70D4A13680133136000273846F8BD57
:103800001007002094070020A0020020A40200203E
:103810004C070020480700209C020020A80200203E
:1038200098070020180700205007002038B5354BB6
:103830001B6843B94FF0500383F31188BFF36F8FB8
:10384000BFF34F8FFEE700F075FE2E4B1A68013A6A
:103850001A601B68002B4FD12B4B1B680BB900243F
:103860004BE00024294B1B681BB3284BDB68DC684A
:1038700004F11800FFF792F9251D2846FFF78EF98D
:10388000E06A234B1B68984201D9214B186000EB7A
:10389000800029461F4B03EB8000FFF75BF9E26ACB
:1038A0001D4B1B68DB6A9A42DCD31C4B01221A6059
:1038B000D8E70CB1FFF7DAFC194B1C6884B9174B39
:1038C0001C68D4B14FF0E0234FF08052C3F8042DB0
:1038D000BFF34F8FBFF36F8F01240EE0013C07D081
:1038E000FFF718FF0028F9D00C4B01221A60F5E70A
:1038F0000B4B00221A60E2E7002400F03DFE204658
:1039000038BD00BF10070020080700205407002022
:1039100018070020A80200209C0200209807002021
:103920005007002010B5A8B10446104B1B6843B1E6
:103930004FF0500383F31188BFF36F8FBFF34F8FA6
:10394000FEE7FFF7D9FE00212046FFF7D9FDFFF77C
:103950006DFF48B94FF0E0234FF08052C3F8042DBB
:10396000BFF34F8FBFF36F8F10BD00BF1007002054
:103970001F4B1B681BB11F4B01221A6070471D4B68
:1039800000221A601C4B1B6803EB83018A001B4951
:103990008A585AB90BB1013BF6E74FF0500383F355
:1039A0001188BFF36F8FBFF34F8FFEE703EB8300E8
:1039B00082000A4450684068506003EB830C4FEA71
:1039C0008C020832114488420BD003EB8302910031
:1039D0000A4A0A445268D168094A1160064A1360CB
:1039E0007047406862469100044A0A445060ECE720
:1039F000100700209807002018070020A8020020C8
:103A00009C02002058B110B50C46094A11681831C3
:103A1000FFF7ABF801212046FFF772FD10BD4FF014
:103A2000500383F31188BFF36F8FBFF34F8FFEE70F
:103A30009C02002038B570B10D4614460A4A116840
:103A40001831FFF787F80CB14FF0FF3521462846B3
:103A5000FFF756FD38BD4FF0500383F31188BFF3D5
:103A60006F8FBFF34F8FFEE79C02002038B5C3680D
:103A7000DC6824B304F118052846FFF78FF8184BCB
:103A80001B682BBB251D2846FFF788F8E06A154BFD
:103A90001B68984201D9134B186000EB800029463F
:103AA000114B03EB8000FFF755F8E26A0F4B1B68E0
:103AB000DB6A9A4211D901200D4B186038BD4FF0D6
:103AC000500383F31188BFF36F8FBFF34F8FFEE76F
:103AD00029460848FFF73EF8E7E70020EEE700BF79
:103AE0001007002018070020A80200209C020020D8
:103AF0009807002054070020034B1B680360034B0A
:103B00001B684360704700BF4C07002094070020EB
:103B1000F8B5C8B10C460546F9B100F00BFD1B4BDA
:103B200019686B68C81A2268B2F1FF3F26D0184E98
:103B300036682F68B74201D08B4224D9824215D80B
:103B40000023236001241AE04FF0500383F311880F
:103B5000BFF36F8FBFF34F8FFEE74FF0500383F338
:103B60001188BFF36F8FBFF34F8FFEE75B1A1344CB
:103B700023602846FFF7C0FF002400E0002400F087
:103B8000FBFC2046F8BD0124F9E700BF94070020A4
:103B90004C070020014B01221A6070479807002053
:103BA000054B1B6833B1054B1B680BB100207047F8
:103BB000022070470120704768070020100700208E
:103BC00000283BD038B504461E4B1B68834208D002
:103BD0004FF0500383F31188BFF36F8FBFF34F8F04
:103BE000FEE7036D43B94FF0500383F31188BFF331
:103BF0006F8FBFF34F8FFEE7013B0365C16AC26C55
:103C000091421DD00BB1002038BD051D2846FEF79E
:103C1000C5FFE06CE062C0F13803A3610A4B1B688A
:103C2000984201D9084B186000EB80002946074BE9
:103C300003EB8000FEF78EFF0120E5E700207047D0
:103C40000020E1E79C02002018070020A8020020C5
:103C5000064B1A6813682BB90123036023B9D36894
:103C6000186870470023F8E7002070479C07002081
:103C700008B54160006191420CD8D21A83699A421A
:103C800001D3012008BD011D094B1868FEF76DFF27
:103C90000020F7E79A4201D2994206D2011D054B56
:103CA0001868FEF762FF0020ECE70120EAE700BF9A
:103CB000A00700209C07002030B583B000F03AFC3C
:103CC000114B1B681BB100F057FC03B030BD0F4D0A
:103CD0002846FEF731FF0E4C2046FEF72DFF0D4B18
:103CE0001D600D4B1C60002300930C4B0C4A1021EF
:103CF0000A20FFF759F8044B18600028E3D009495F
:103D0000FFF776FADFE700BFC00800204408002074
:103D1000580800209C070020A00700207008002001
:103D2000A4070020709A000810B588B0FFF7C4FF00
:103D3000124B1B68CBB100240594069407AA06A970
:103D400005A800F061FA059B0293069B01930223EC
:103D500000932346079A0A490A48FFF70FFC0A4BCB
:103D6000186010B1012008B010BD4FF0500383F36C
:103D70001188BFF36F8FBFF34F8FFEE7C00800209D
:103D8000789A00088D400008C4080020B8B19C460D
:103D900003461848006858B300B585B000910192F9
:103DA000029305291CDCFFF7FBFE022810D000233C
:103DB0001A4669460F480068FFF740F815E04FF0D3
:103DC000500383F31188BFF36F8FBFF34F8FFEE76C
:103DD0000023069A694607480068FFF72FF804E0B9
:103DE000002362466946FFF7EDF805B05DF804FB75
:103DF00000207047C008002070B582B01B4B1B68C4
:103E00001A6862B3DB681E68DC68251D2846FEF769
:103E1000C5FE236A2046984794F8283013F0040F13
:103E2000ECD0A36933449E4207D2636024612946E3
:103E30000E4B1868FEF799FEE0E7002100910B4653
:103E400032462046FFF7A2FF0028D7D14FF050039B
:103E500083F31188BFF36F8FBFF34F8FFEE7044AE0
:103E6000106802490860136002B070BD9C07002012
:103E7000A007002038B50546FFF746FC0446074B6F
:103E80001B68834205D800232B60044B1C6020462E
:103E900038BDFFF7B1FF01232B60F6E76C08002067
:103EA00070B582B006460D4617490968C968CC68E6
:103EB000201DFEF773FE94F828C01CF0040F08D1F3
:103EC0002CF0010C84F828C0236A2046984702B0E1
:103ED00070BDA16933462A4631442046FFF7C8FE2B
:103EE0000028F1D0002100910B4632462046FFF712
:103EF0004DFF0028E8D14FF0500383F31188BFF342
:103F00006F8FBFF34F8FFEE79C07002070B582B024
:103F100006460C46FFF7F0FB01A8FFF7ABFF019B3D
:103F200033BB05460CB9B04219D224B1124A12680B
:103F30001268DAB901242246711B104B1868FFF78A
:103F40006BF9FFF773FCA8B94FF0E0234FF08052F4
:103F5000C3F8042DBFF34F8FBFF36F8F0AE0FFF755
:103F600065FC29463046FFF79BFF03E01C46E2E76D
:103F7000FFF75CFC02B070BDA0070020C008002065
:103F800010B588B002E0049B002B0FDA002204A9D0
:103F90003D4B1868FFF77DF8002873D0049B002B79
:103FA000F1DA07990698059B9847ECE7069C636948
:103FB00013B1201DFEF7F2FD03A8FFF75BFF049B82
:103FC000092BE3D8DFE803F0050505303750050578
:103FD000303794F8283043F0010384F82830059BEB
:103FE000A169024619442046FFF742FE0028CDD0C1
:103FF000236A2046984794F8283013F0040FC5D060
:10400000A269002100910B46059802442046FFF763
:10401000BDFE0028BAD14FF0500383F31188BFF3DF
:104020006F8FBFF34F8FFEE794F8283023F0010322
:1040300084F82830AAE794F8283043F0010384F884
:1040400028300599A16131B103460246014420465A
:10405000FFF70EFE9AE74FF0500383F31188BFF38A
:104060006F8FBFF34F8FFEE794F8283013F0020FE5
:1040700004D023F0010384F8283087E7204600F0BD
:10408000B1F983E708B010BDC008002000B583B0C7
:1040900001A8FFF7DDFD0199FFF738FFFFF770FF7B
:1040A000F6E708B54FF0E0231B69FFF779FD01281B
:1040B00000D108BD00F0AEFAFBE70000EFF3058386
:1040C0002BB9064B186828B901221A6070476FF0A7
:1040D000050070474FF0FF30704700BF240B0020F1
:1040E000EFF3058373B90A4B1B68012B0DD110B593
:1040F0000024084BDC77064B02221A60FFF7AEFA69
:10410000204610BD6FF0050070474FF0FF3070473C
:10411000240B002000ED00E0F0B587B000240594EA
:10412000EFF3058474BB68B322B31568936903B9D0
:1041300018235C1E372C49D8546814F0010F47D15E
:1041400056696EB14FEA960C94682CB1D7685B2F14
:1041500002D9176907B1C6B92CB14FF0FF340EE090
:104160004FF0800CF0E7D4688CB9146994B14FF02B
:10417000FF3404E01546002418234FF0800C012C76
:104180000AD0ACB1059807B0F0BD0124F7E74FF0B5
:10419000FF34F4E70024F2E7146992680292019474
:1041A00000930B4662462946FFF7E8F90590E9E7D8
:1041B00005AA019200930B461FFA8CF22946FFF7DD
:1041C00018FA0128DED000230593DBE70020DAE7A8
:1041D0000020D8E708B5EFF3058333B908B900200C
:1041E00008BDFFF79FFB0020FAE76FF00500F7E737
:1041F000034B0360034B0B6080231360704700BFC9
:10420000C80A0020C8080020034B0360034B0B6062
:104210004FF4807313607047280F0020280B002094
:10422000124A12F0070F1ED0D11D21F00701C1F56F
:10423000705313440A460E48026000214160134443
:10424000083B23F007030B48036059601960991A73
:1042500051601360084B1960084B1960084B4FF010
:1042600000421A6070474FF47053E4E7880F002053
:104270009C4B0020840F0020904B00208C4B002092
:10428000884B0020164B1A461B688342FBD35168AB
:1042900002EB010C844509D0416800EB010C634539
:1042A00009D00360904219D0106070474068014403
:1042B00051601046F0E710B40A4C2468A3420BD0BA
:1042C0005B681944416013681B680360904200D02A
:1042D00010605DF8044B70470460F7E7704700BF5B
:1042E0009C4B0020840F002070B50546FFF704FAB0
:1042F000364B1B68A3B1364B1B681D424ED135B1FE
:10430000083515F0070F02D025F007050835002DF8
:1043100046D0304B1B68AB4251D32F4A146804E09F
:10432000FFF77EFFE7E722461C466368AB4202D2F6
:104330002368002BF7D1254B1B68A34241D0166898
:1043400008362368136063685B1B102B10D9601953
:1043500010F0070F08D04FF0500383F31188BFF31C
:104360006F8FBFF34F8FFEE743606560FFF78AFFF3
:10437000626818490B689B1A0B60184909688B42E0
:1043800001D216490B60124B1B6813436360002374
:104390002360134A13680133136002E0002600E033
:1043A0000026FFF743FA16F0070F0CD04FF050032A
:1043B00083F31188BFF36F8FBFF34F8FFEE70026A3
:1043C000EFE70026EDE7304670BD00BF840F002008
:1043D000884B00208C4B00209C4B0020904B0020F1
:1043E000944B0020002834D038B50446A0F10805CD
:1043F00050F8043C174A1268134208D14FF050039A
:1044000083F31188BFF36F8FBFF34F8FFEE750F830
:10441000081C41B14FF0500383F31188BFF36F8F35
:10442000BFF34F8FFEE723EA020340F8043CFFF797
:1044300063F954F8041C084A13680B4413602846B7
:10444000FFF720FF054A136801331360FFF7EEF909
:1044500038BD7047884B00208C4B0020984B0020C3
:1044600082B0002301930D4B1B68B3F1FF3F08D0CE
:104470004FF0500383F31188BFF36F8FBFF34F8F5B
:10448000FEE74FF0500383F31188BFF36F8FBFF344
:104490004F8F019B002BFCD002B070470C00002016
:1044A00008480068006880F308884FF0000080F337
:1044B000148862B661B6BFF34F8FBFF36F8F00DF12
:1044C00000BF000008ED00E0DFF80C00016841F4D7
:1044D000700101607047000088ED00E04FF08073CC
:1044E00040F8043C21F0010140F8081C054B40F85D
:1044F0000C3C40F8202C6FF0020340F8243C443878
:10450000704700BF61440008000000000000000088
:10451000074B19680868B0E8F04F80F30988BFF3CB
:104520006F8F4FF0000080F311887047AFF3008069
:104530009C0200204FF0500383F31188BFF36F8F6C
:10454000BFF34F8F0B4A136801331360012B00D068
:1045500070474FF0E023D3F8043D13F0FF0FF7D07E
:104560004FF0500383F31188BFF36F8FBFF34F8F6A
:10457000FEE700BF0C000020094B1B6843B94FF059
:10458000500383F31188BFF36F8FBFF34F8FFEE7A4
:10459000013B034A13600BB983F31188704700BFD6
:1045A0000C000020000000000000000000000000DF
:1045B000EFF30980BFF36F8F154B1A681EF0100FD1
:1045C00008BF20ED108A20E9F04F10602DE90900A6
:1045D0004FF0500080F31188BFF34F8FBFF36F8F00
:1045E000FFF7C6F94FF0000080F3118809BC196885
:1045F0000868B0E8F04F1EF0100F08BFB0EC108A4A
:1046000080F30988BFF36F8F704700BFAFF300805E
:104610009C02002008B54FF0500383F31188BFF3CC
:104620006F8FBFF34F8FFFF775F828B14FF0E0237E
:104630004FF08052C3F8042D002383F3118808BD86
:104640004FF0E022002313619361054B1B6805497D
:10465000A1FB03139B09013B5361072313617047BF
:1046600008000020D34D62104FF0E023D3F8002D56
:104670003D4B9A421CD04FF0E023D3F8002D3B4B2A
:104680009A421ED030B583B0394B1A78D2B201921B
:10469000FF221A701B78DBB28DF803309DF80330CF
:1046A00003F05003334A1370334B07221A601BE0A8
:1046B0004FF0500383F31188BFF36F8FBFF34F8F19
:1046C000FEE74FF0500383F31188BFF36F8FBFF302
:1046D0004F8FFEE7284A1368013B13609DF80330B3
:1046E0005B00DBB28DF803309DF8033013F0800FD0
:1046F000F0D1214B1B68032B08D04FF0500383F3FC
:104700001188BFF36F8FBFF34F8FFEE71B021A4A6A
:10471000136003F4E0631360019BDBB2144A13706F
:104720004FF0E024D4F8203D43F47003C4F8203D5A
:10473000D4F8203D43F07043C4F8203DFFF780FFDC
:1047400000250E4B1D60FFF7BFFED4F8343F43F049
:104750004043C4F8343FFFF7A3FEFFF709F9FFF722
:104760007FFE284603B030BD71C20F4170C20F41B9
:1047700000E400E0A44B0020A84B00200C00002027
:10478000EFF305830F2B0FD9114A9B5CDBB2114A63
:1047900012789A4208D94FF0500383F31188BFF37F
:1047A0006F8FBFF34F8FFEE74FF0E023D3F80C3D40
:1047B00003F4E063084A1268934208D94FF05003AB
:1047C00083F31188BFF36F8FBFF34F8FFEE77047FE
:1047D000F0E300E0A44B0020A84B002010B50346F6
:1047E0000C4A0D490D48006840B10C48006803446C
:1047F000521A934206D8094A136010BD0748084C64
:104800000460F2E702F0DEFA0C2303604FF0FF30A1
:10481000F3E700BF0000022000040000AC4B0020C2
:10482000105200200120704708B502F0CBFA162381
:1048300003604FF0FF3008BD08B54FF0FF31FFF7C0
:10484000F3FFFEE770B50C461646002506E0AFF311
:104850000080214601F8010B01350C46B542F6DB1C
:10486000304670BD4FF0FF3070474FF400534B603F
:1048700000207047012070470020704710B50A489B
:1048800002F0D0FF094C20220949206800F0FAFE0E
:104890002368DB6B1A68136823F00803136005486C
:1048A00002F03AFF10BD00BF809A000810000020FF
:1048B000B44B00208C9A00087047000010B51446D5
:1048C0004FF0FF3392B2024800F0B5FB204610BD16
:1048D000544D002002680A4B9A4200D0704710B530
:1048E000084B1960084C20220849206800F0CAFED5
:1048F0002368DB6B1A68136823F00803136010BD8C
:1049000000500040B04B002010000020B44B0020AD
:1049100008B50A480A4B03604FF4E13343600023B3
:104920008360C36003610C2242618361C36100F054
:1049300052FB00B908BDFCF7C5FAFBE72C4E00207E
:10494000004C004008B50D480D4B03600D4B436013
:104950004FF4805383604FF40053C3604FF480637F
:1049600003610423436100238361C36100F033FBCF
:1049700000B908BDFCF7A6FAFBE700BF744E0020A3
:1049800000500040A086010008B50A480A4B0360A9
:104990004FF4E133436000238360C36003610C2262
:1049A00042618361C36100F016FB00B908BDFCF7EA
:1049B00089FAFBE7544D00200010014008B50A4871
:1049C0000A4B03604FF46133436000238360C3608C
:1049D00003610C2242618361C36100F0FCFA00B9FB
:1049E00008BDFCF76FFAFBE79C4D00200044004037
:1049F00008B50A480A4B03604FF4E13343600023D3
:104A00008360C36003610C2242618361C36100F073
:104A1000E2FA00B908BDFCF755FAFBE7E44D0020C7
:104A2000004800402DE9F04190B0044600230B936C
:104A30000C930D930E930F930368A04A934211D0E9
:104A40009F4A934253D09F4A934200F0AE809E4AC1
:104A5000934200F0EF809D4A934200F0518110B0E4
:104A6000BDE8F08100250095994B1A6C42F40022B4
:104A70001A641A6C02F400220092009A01951A6BD3
:104A800042F004021A631B6B03F004030193019BC1
:104A90004FF440630B9302230C9303230E930823DC
:104AA0000F930BA98B48FCF7DFFF8B488B4B036000
:104AB0004FF0006343608560C5604FF4806303611D
:104AC00045618561C56105624562FDF745F958B9E3
:104AD000814BE3639C63002205213420FDF734FB06
:104AE0003420FDF769FBBAE7FCF7ECF9F0E70025A5
:104AF0000295774B1A6C42F480121A641A6C02F415
:104B000080120292029A03951A6B42F004021A6311
:104B10001A6B02F004020392039A04951A6B42F096
:104B200008021A631B6B03F008030493049B4FF401
:104B300080530B934FF00208CDF8308003270E9777
:104B400008260F960BA96348FCF78EFF04230B93EE
:104B5000CDF830800D950E970F960BA96048FCF7A5
:104B600083FF6048604B03604FF0006343608560E3
:104B7000C5604FF48063036145618561C5614FF491
:104B8000003303624562FDF7E7F858B9554BE3631C
:104B90009C63002205213520FDF7D6FA3520FDF76C
:104BA0000BFB5CE7FCF78EF9F0E700250595484B19
:104BB0005A6C42F010025A645A6C02F010020592CC
:104BC000059A06951A6B42F001021A631B6B03F0FB
:104BD00001030693069B4FF4C0630B9302230C93CF
:104BE00003230E9307230F930BA94048FCF73CFFC8
:104BF0003F48404B03604FF0006343608560C560F1
:104C00004FF48063036145618561C561056245625A
:104C1000FDF7A2F858B9364BE3639C6300220521E7
:104C20002520FDF791FA2520FDF7C6FA17E7FCF7D6
:104C300049F9F0E700250795254B1A6C42F400323C
:104C40001A641A6C02F400320792079A08951A6BDC
:104C500042F001021A631B6B03F001030893089BE7
:104C60000C230B9302230C9303230E9307230F9320
:104C70000BA91E48FCF7F8FE1F48204B03604FF0BD
:104C8000006343608560C5604FF4806303614561E4
:104C90008561C56105624562FDF75EF858B9164B3E
:104CA000E3639C63002205212620FDF74DFA2620B0
:104CB000FDF782FAD3E6FCF705F9F0E7004C004077
:104CC00000500040001001400044004000480040F7
:104CD0000038024000080240D44B002040600240EF
:104CE000000C0240344C00201060024000000240E2
:104CF000944C002040640240F44C00208860024044
:104D000000240994144B1A6C42F480221A641A6C21
:104D100002F480220992099A0A941A6B42F0020264
:104D20001A631B6B03F002030A930A9B4FF4406360
:104D30000B9302230C9303230E9307230F930BA9CA
:104D40000648FCF791FE224605212720FDF7FCF9D5
:104D50002720FDF731FA82E60038024000040240C5
:104D6000026802F10C0353E8003F23F0C0030C3249
:104D700042E800310029F3D1202380F84130704708
:104D8000026802F10C0353E8003F23F490730C32E5
:104D900042E800310029F3D1026802F1140353E81C
:104DA000003F23F00103143242E800310029F3D11F
:104DB000036B012B05D0202380F8423000230363CE
:104DC0007047026802F10C0353E8003F23F0100320
:104DD0000C3242E800310029F3D1ECE790F8413081
:104DE000DBB2212B01D0022070478368B3F5805FCE
:104DF00017D0036A5A1C02621A7803685A60C38C7F
:104E00009BB2013B9BB2C3844BB90268D36823F0C9
:104E10008003D3600268D36843F04003D36000206E
:104E200070470369002BE4D1036A1B880268C3F34F
:104E300008035360036A02330362E0E738B50446AF
:104E40000268136923F44053C1680B4313618368FC
:104E50000269134342691343C2691A430168CB686C
:104E600023F4164323F00C031343CB600268536909
:104E700023F4407381690B4353610368314A9342C1
:104E800006D002F58062934202D0FCF7AFFD01E04C
:104E9000FCF7BCFDE369B3F5004F29D000210318EE
:104EA00049411B1841F10001C90041EA5371DB007F
:104EB000181863684FEA83024FEA937341F10001C7
:104EC000FBF772FE204DA5FB00325109642303FB62
:104ED00011031B013233A5FB03235B0903F0F0022E
:104EE00002EB011203F00F03216813448B6038BDFD
:104EF0000023021843EB0301121841F10001C9001D
:104F000041EA5271D200101841F100016268921812
:104F10005B41FBF749FE0C4DA5FB003251096423B0
:104F200003FB1103DB003233A5FB03235B095A00AB
:104F300002F4F87202EB011203F007032168134434
:104F40008B60D4E7001001401F85EB512DE9F04341
:104F500083B005460E4617469946DDF828802C6832
:104F6000246836EA04030CBF4FF0010C4FF0000C2C
:104F7000BC4528D1B8F1FF3FF1D0FDF751F9A0EBC6
:104F80000900404523D8B8F1000F22D02B68DA6819
:104F900012F0040FE3D0802EE1D0402EDFD01A684B
:104FA00012F0080FDBD0002401941A6801925B68AC
:104FB0000193019B2846FFF7E3FE08236B6485F805
:104FC0004040012000E0002003B0BDE8F083032052
:104FD000FAE70320F8E760B310B5044690F84130D3
:104FE00013B3242384F841302268D36823F4005398
:104FF000D3602046FFF722FF2268136923F4904311
:1050000013612268536923F02A0353612268D3682D
:1050100043F40053D36000206064202384F84130BF
:1050200084F84230606310BD80F84030FFF7FAFC2E
:10503000D7E7012070472DE9F04182B01E4690F875
:105040004130DBB2202B56D104460D469046002954
:1050500055D00AB901204FE000234364212380F892
:105060004130FDF7DDF80746A4F82480A4F8268037
:10507000A368B3F5805F02D04FF0000814E0236905
:105080002BB34FF000080FE0202384F841300320B9
:1050900032E038F8023B2268C3F308035360E28C25
:1050A00092B2013A92B2E284E38C9BB293B1009641
:1050B0003B46002280212046FFF748FF0028E3D12D
:1050C000002DE6D015F8012B23685A60E7E7A846C3
:1050D0000025E9E700963B46002240212046FFF7E5
:1050E00035FF18B9202384F8413005E0202384F8E7
:1050F0004130032000E0022002B0BDE8F081012031
:10510000FAE7704708B50168CA6822F04002CA6031
:10511000202280F84120FFF7F4FF002008BD7047EF
:105120007047704710B5846B23685A6994F8413012
:10513000DBB2212B10D023685A6902F0400294F8A8
:105140004230DBB2222B11D0636C43F01003636456
:105150002046FFF7E6FF10BD02F08002002AEAD0E9
:105160000023E3842046FFF7FBFDE4E7002AEBD0B1
:105170000023E3852046FFF703FEE5E708B5806BD3
:105180000023C385FFF7CDFF08BD90F84230DBB2A6
:10519000222B69D18368B3F5805F4FD0826AB3F563
:1051A000805F04D0002B56D10369002B53D10368D4
:1051B0005B681370836A01338362C38D9BB2013BCA
:1051C0009BB2C385002B51D100B583B00268D36870
:1051D00023F02003D3600268D36823F48073D36084
:1051E0000268536923F001035361202380F84230A1
:1051F00000234363036B012B33D100230363026855
:1052000002F10C0353E8003F23F010030C3242E894
:1052100000310029F3D103681A6812F0100F06D08C
:10522000002201921A6801925B680193019B818DB3
:10523000FFF750FB002003B05DF804FB0269002A71
:10524000ACD1826A03685B68C3F308031380836A86
:1052500002338362B1E703685B6803F07F03137076
:10526000A8E7FFF75CFFE5E70220704700207047E2
:1052700030B583B0044602681368D068516913F0F2
:105280000F0505D113F0200F02D010F0200F19D117
:105290002DB111F0010119D110F4907F16D1216BBD
:1052A00001297DD013F0800F03D010F0800F40F063
:1052B000268113F0400F03D010F0400F40F02381FF
:1052C00003B030BD2046FFF760FFF9E713F0010F90
:1052D00006D010F4807F03D0626C42F00102626459
:1052E00013F0040F04D019B1626C42F00202626440
:1052F00013F0020F04D019B1626C42F00402626430
:1053000013F0080F07D010F0200F00D119B1626C14
:1053100042F008026264626C002AD1D013F0200FC0
:1053200002D010F0200F29D123685B6903F04003FD
:10533000626C12F0080F00D163B32046FFF720FD26
:1053400023685B6913F0400F20D0226802F1140338
:1053500053E8003F23F04003143242E800310029B3
:10536000F3D1E36B73B16A4A1A65E06BFCF7D9FDC0
:105370000028A5D0E06B036D9847A1E72046FFF712
:1053800004FFD1E72046FFF7CCFE99E72046FFF760
:10539000C8FE95E72046FFF7C4FE002363648FE74D
:1053A00013F0100F3FF47EAF10F0100F3FF47AAF00
:1053B000002301931368019353680193019B536980
:1053C00013F0400F5FD0E26B13685B689BB2002B59
:1053D0004AD0A18D994247D9E385D369B3F5807F3F
:1053E00037D0226802F10C0353E8003F23F48073A6
:1053F0000C3242E800310029F3D1226802F1140393
:1054000053E8003F23F00103143242E80031002941
:10541000F3D1226802F1140353E8003F23F0400364
:10542000143242E800310029F3D1202384F84230BD
:1054300000232363226802F10C0353E8003F23F0AA
:1054400010030C3242E800310029F3D1E06BFCF785
:105450001EFD02236363A18DE38D9BB2C91A89B23D
:105460002046FFF737FA2BE7A18D99427FF428AF4A
:10547000D369B3F5807F7FF423AF022363632046B3
:10548000FFF728FA1CE7A18DE38D9BB2C91A89B2F8
:10549000E38D9BB2002B3FF413AF00293FF410AF14
:1054A000226802F10C0353E8003F23F490730C329E
:1054B00042E800300028F3D1226802F1140353E8D7
:1054C000003F23F00103143242E800300028F3D1FA
:1054D000202384F8423000232363226802F10C0366
:1054E00053E8003F23F010030C3242E8003000285C
:1054F000F3D1022363632046FFF7ECF9E0E6204690
:10550000FFF76CFCDCE62046FFF7FCFDD8E600BFA9
:105510007D51000808B5806B01234363036B012BA9
:1055200002D0FFF7FDFD08BD818D4908FFF7D2F9D4
:10553000F9E708B50346806B1B681B6813F4807F8E
:105540002BD10023C385026802F10C0353E8003F0E
:1055500023F480730C3242E800310029F3D1026851
:1055600002F1140353E8003F23F00103143242E830
:1055700000310029F3D1026802F1140353E8003F1F
:1055800023F04003143242E800310029F3D12023F4
:1055900080F84230036B012B07D000234363036B79
:1055A000012B0FD0FFF7BBFD08BD026802F10C0311
:1055B00053E8003F23F010030C3242E80031002989
:1055C000F3D1EAE7818DFFF785F9EDE730B583B0D8
:1055D000044613468162828500224264222084F8B8
:1055E0004200E06B244DC563E06B244D0564E06B25
:1055F000234DC564E06B026520680A46011DE06B1F
:10560000FCF710FC00282FD10023019323681A68AF
:1056100001925B680193019B23695BB1226802F1EF
:105620000C0353E8003F43F480730C3242E800312E
:105630000029F3D1226802F1140353E8003F43F03C
:105640000103143242E800310029F3D1226802F14B
:10565000140353E8003F43F04003143242E80031A2
:105660000029F3D103B030BD10236364202384F8F4
:1056700042300120F6E700BF3355000815550008F9
:105680002551000890F84230DBB2202B27D110B50D
:1056900082B0044629B312B9012002B010BD012323
:1056A000036300234363FFF791FF236B012B01D0BA
:1056B0000120F2E70023019323681A6801925B68D6
:1056C0000193019B226802F10C0353E8003F43F071
:1056D00010030C3242E800310029F3D1DDE702204B
:1056E00070470120D9E7000010B582B00024009473
:1056F0001A4B1A6B42F400121A631A6B02F400126E
:105700000092009A01941A6B42F480021A631B6B98
:1057100003F480030193019B224605210B20FCF733
:1057200013FD0B20FCF748FD224605210D20FCF758
:105730000BFD0D20FCF740FD224605211020FCF753
:1057400003FD1020FCF738FD224605213A20FCF726
:10575000FBFC3A20FCF730FD02B010BD00380240DF
:1057600000B585B00023009301930293039315487D
:10577000154A02604FF48032426083600361037611
:1057800080F82030C362114A8262C3600122C26184
:1057900080F83030426100F037FE68B90A23009388
:1057A00001230193002302936946064800F0FCFEA2
:1057B00028B905B05DF804FBFBF784FBEEE7FBF7C7
:1057C00081FBF6E7BC4E0020002001400100000FE5
:1057D00010B588B0002303930493059306930793B1
:1057E000026803F1804303F590339A4201D008B078
:1057F00010BD0024019403F58C335A6C42F480727E
:105800005A645A6C02F480720192019A02941A6BE3
:1058100042F004021A631B6B03F004030293029B21
:10582000012303930323049303A90648FCF71CF9FF
:10583000224605211220FCF787FC1220FCF7BCFC55
:10584000D5E700BF0008024008B50D480D4B0360C6
:105850001823436000238360C3604FF40022026179
:105860004FF440124261037643768376C376037722
:10587000437700F066FF00B908BDFBF723FBFBE7A9
:10588000084F00200064004008B50D480D4B036030
:105890000323436000238360C3604FF4002202614E
:1058A0004FF440124261037643768376C3760377E2
:1058B000437700F046FF00B908BDFBF703FBFBE7A9
:1058C000304F00200068004010B58AB000230593D7
:1058D00006930793089309930368564A934204D0AA
:1058E000554A93424CD00AB010BD544A1368013354
:1058F0001360012B37D000240194514B1A6B42F0F6
:1059000008021A631B6B03F008030193019B032336
:1059100005930222069208930923099305A9494891
:10592000FCF7A2F8224605211320FCF70DFC1320FA
:10593000FCF742FC224605211420FCF705FC14204C
:10594000FCF73AFC224605211520FCF7FDFB15204B
:10595000FCF732FC224605211620FCF7F5FB162049
:10596000FCF72AFCBFE700230093354B1A6C42F08A
:1059700000721A641B6C03F000730093009BBAE77B
:10598000002302932E4B1A6C42F080621A641B6C47
:1059900003F080630293029B284A1368013313606B
:1059A000012B39D000240494254B1A6B42F00202DB
:1059B0001A631B6B03F002030493049B4FF44053E0
:1059C000059302230693032308930923099305A94A
:1059D0001D48FCF749F8224605213F20FCF7B4FB9F
:1059E0003F20FCF7E9FB224605214020FCF7ACFBF9
:1059F0004020FCF7E1FB224605214120FCF7A4FBF7
:105A00004120FCF7D9FB224605214220FCF79CFBF4
:105A10004220FCF7D1FB66E700230393084B1A6C86
:105A200042F000721A641B6C03F000730393039B33
:105A3000B8E700BF0064004000680040044F002049
:105A400000380240000C02400004024008B50B4838
:105A50000B4B03600B4B436000238360C3604FF428
:105A60008042026143618361C361036201F042F8D5
:105A700000B908BDFBF726FAFBE700BF584F00202E
:105A800000540040A086010030B589B00023039384
:105A900004930593069307930268144B9A4201D02E
:105AA00009B030BD00250195114C236B43F0020372
:105AB0002363236B03F002030193019BC023039331
:105AC00012230493032306930423079303A909488D
:105AD000FBF7CAFF0295236C43F400132364236C85
